{
  "contractName": "MedicalRecord",
  "abi": [
    {
      "constant": false,
      "inputs": [
        {
          "name": "h",
          "type": "address"
        }
      ],
      "name": "registerDoctor",
      "outputs": [],
      "payable": false,
      "stateMutability": "nonpayable",
      "type": "function",
      "signature": "0x699ca998"
    },
    {
      "constant": true,
      "inputs": [
        {
          "name": "user",
          "type": "address"
        }
      ],
      "name": "readHistory",
      "outputs": [
        {
          "name": "record",
          "type": "string"
        }
      ],
      "payable": false,
      "stateMutability": "view",
      "type": "function",
      "signature": "0x60bddf0f"
    },
    {
      "constant": false,
      "inputs": [
        {
          "name": "user",
          "type": "address"
        },
        {
          "name": "record",
          "type": "string"
        }
      ],
      "name": "addRecord",
      "outputs": [],
      "payable": false,
      "stateMutability": "nonpayable",
      "type": "function",
      "signature": "0x66858ec8"
    },
    {
      "constant": false,
      "inputs": [
        {
          "name": "hospital",
          "type": "address"
        }
      ],
      "name": "grantAccess",
      "outputs": [],
      "payable": false,
      "stateMutability": "nonpayable",
      "type": "function",
      "signature": "0x0ae5e739"
    },
    {
      "constant": false,
      "inputs": [
        {
          "name": "hospital",
          "type": "address"
        }
      ],
      "name": "removeAccess",
      "outputs": [],
      "payable": false,
      "stateMutability": "nonpayable",
      "type": "function",
      "signature": "0x8823da6c"
    }
  ],
  "bytecode": "0x608060405234801561001057600080fd5b50610cde806100206000396000f3fe60806040526004361061006d576000357c0100000000000000000000000000000000000000000000000000000000900463ffffffff1680630ae5e7391461007257806360bddf0f146100c357806366858ec81461018d578063699ca998146102755780638823da6c146102c6575b600080fd5b34801561007e57600080fd5b506100c16004803603602081101561009557600080fd5b81019080803573ffffffffffffffffffffffffffffffffffffffff169060200190929190505050610317565b005b3480156100cf57600080fd5b50610112600480360360208110156100e657600080fd5b81019080803573ffffffffffffffffffffffffffffffffffffffff1690602001909291905050506103b1565b6040518080602001828103825283818151815260200191508051906020019080838360005b83811015610152578082015181840152602081019050610137565b50505050905090810190601f16801561017f5780820380516001836020036101000a031916815260200191505b509250505060405180910390f35b34801561019957600080fd5b50610273600480360360408110156101b057600080fd5b81019080803573ffffffffffffffffffffffffffffffffffffffff169060200190929190803590602001906401000000008111156101ed57600080fd5b8201836020820111156101ff57600080fd5b8035906020019184600183028401116401000000008311171561022157600080fd5b91908080601f016020809104026020016040519081016040528093929190818152602001838380828437600081840152601f19601f8201169050808301925050505050505091929192905050506105cc565b005b34801561028157600080fd5b506102c46004803603602081101561029857600080fd5b81019080803573ffffffffffffffffffffffffffffffffffffffff169060200190929190505050610ac1565b005b3480156102d257600080fd5b50610315600480360360208110156102e957600080fd5b81019080803573ffffffffffffffffffffffffffffffffffffffff169060200190929190505050610b73565b005b60016000803373ffffffffffffffffffffffffffffffffffffffff1673ffffffffffffffffffffffffffffffffffffffff16815260200190815260200160002060020160008373ffffffffffffffffffffffffffffffffffffffff1673ffffffffffffffffffffffffffffffffffffffff16815260200190815260200160002060006101000a81548160ff02191690831515021790555050565b6060600115156000808473ffffffffffffffffffffffffffffffffffffffff1673ffffffffffffffffffffffffffffffffffffffff1681526020019081526020016000206002016000600160003373ffffffffffffffffffffffffffffffffffffffff1673ffffffffffffffffffffffffffffffffffffffff16815260200190815260200160002060000160009054906101000a900473ffffffffffffffffffffffffffffffffffffffff1673ffffffffffffffffffffffffffffffffffffffff1673ffffffffffffffffffffffffffffffffffffffff16815260200190815260200160002060009054906101000a900460ff161515141561058e576000808373ffffffffffffffffffffffffffffffffffffffff1673ffffffffffffffffffffffffffffffffffffffff1681526020019081526020016000206001018054600181600116156101000203166002900480601f0160208091040260200160405190810160405280929190818152602001828054600181600116156101000203166002900480156105825780601f1061055757610100808354040283529160200191610582565b820191906000526020600020905b81548152906001019060200180831161056557829003601f168201915b505050505090506105c7565b6040805190810160405280602081526020017f4e6f207065726d697373696f6e20746f2061636365737320686973746f72792181525090505b919050565b600115156000808473ffffffffffffffffffffffffffffffffffffffff1673ffffffffffffffffffffffffffffffffffffffff1681526020019081526020016000206002016000600160003373ffffffffffffffffffffffffffffffffffffffff1673ffffffffffffffffffffffffffffffffffffffff16815260200190815260200160002060000160009054906101000a900473ffffffffffffffffffffffffffffffffffffffff1673ffffffffffffffffffffffffffffffffffffffff1673ffffffffffffffffffffffffffffffffffffffff16815260200190815260200160002060009054906101000a900460ff1615151415610abd5760606040805190810160405280600181526020017f0a0000000000000000000000000000000000000000000000000000000000000081525090506060829050606082905060606000808773ffffffffffffffffffffffffffffffffffffffff1673ffffffffffffffffffffffffffffffffffffffff1681526020019081526020016000206001018054600181600116156101000203166002900480601f0160208091040260200160405190810160405280929190818152602001828054600181600116156101000203166002900480156107e15780601f106107b6576101008083540402835291602001916107e1565b820191906000526020600020905b8154815290600101906020018083116107c457829003601f168201915b50505050509050606082518251855101016040519080825280601f01601f1916602001820160405280156108245781602001600182028038833980820191505090505b5090506060819050600080905060008090505b86518110156108ea57868181518110151561084e57fe5b9060200101517f010000000000000000000000000000000000000000000000000000000000000090047f01000000000000000000000000000000000000000000000000000000000000000283838060010194508151811015156108ad57fe5b9060200101907effffffffffffffffffffffffffffffffffffffffffffffffffffffffffffff1916908160001a9053508080600101915050610837565b5060008090505b85518110156109a457858181518110151561090857fe5b9060200101517f010000000000000000000000000000000000000000000000000000000000000090047f010000000000000000000000000000000000000000000000000000000000000002838380600101945081518110151561096757fe5b9060200101907effffffffffffffffffffffffffffffffffffffffffffffffffffffffffffff1916908160001a90535080806001019150506108f1565b5060008090505b8451811015610a5e5784818151811015156109c257fe5b9060200101517f010000000000000000000000000000000000000000000000000000000000000090047f0100000000000000000000000000000000000000000000000000000000000000028383806001019450815181101515610a2157fe5b9060200101907effffffffffffffffffffffffffffffffffffffffffffffffffffffffffffff1916908160001a90535080806001019150506109ab565b50816000808b73ffffffffffffffffffffffffffffffffffffffff1673ffffffffffffffffffffffffffffffffffffffff1681526020019081526020016000206001019080519060200190610ab4929190610c0d565b50505050505050505b5050565b6020604051908101604052808273ffffffffffffffffffffffffffffffffffffffff16815250600160003373ffffffffffffffffffffffffffffffffffffffff1673ffffffffffffffffffffffffffffffffffffffff16815260200190815260200160002060008201518160000160006101000a81548173ffffffffffffffffffffffffffffffffffffffff021916908373ffffffffffffffffffffffffffffffffffffffff16021790555090505050565b60008060003373ffffffffffffffffffffffffffffffffffffffff1673ffffffffffffffffffffffffffffffffffffffff16815260200190815260200160002060020160008373ffffffffffffffffffffffffffffffffffffffff1673ffffffffffffffffffffffffffffffffffffffff16815260200190815260200160002060006101000a81548160ff02191690831515021790555050565b828054600181600116156101000203166002900490600052602060002090601f016020900481019282601f10610c4e57805160ff1916838001178555610c7c565b82800160010185558215610c7c579182015b82811115610c7b578251825591602001919060010190610c60565b5b509050610c899190610c8d565b5090565b610caf91905b80821115610cab576000816000905550600101610c93565b5090565b9056fea165627a7a723058201d402f1c6cb0007baffca06ca1d5416cef9a9669fd4a0c9173914bd08dc385ec0029",
  "source": "pragma solidity ^0.5.0;\n\ncontract MedicalRecord {\n    \n    struct User {\n        string name;\n        string record;\n        mapping(address => bool) isAuthenticated;\n    }\n    \n    struct Doctor {\n        address hospital;\n    }\n    \n    mapping(address => User) private users;\n    mapping(address => Doctor) private doctors;\n    \n\n    function registerDoctor(address h) public {\n        doctors[msg.sender] = Doctor({hospital:h});\n    }\n    \n    function readHistory(address user) public view returns(string memory record) {\n        if (users[user].isAuthenticated[doctors[msg.sender].hospital] == true) {\n            record = users[user].record;\n        }\n        else {\n            record = \"No permission to access history!\";\n        }\n    }\n    function addRecord(address user, string memory record) public {\n        if (users[user].isAuthenticated[doctors[msg.sender].hospital] == true) {\n            string memory n = \"\\n\";\n            bytes memory newRecord = bytes(record);\n            bytes memory enter = bytes(n);\n            bytes memory history = bytes(users[user].record);\n            string memory temp = new string(newRecord.length + history.length + enter.length);\n            bytes memory add = bytes(temp);\n            uint k = 0;\n            for (uint i = 0; i < newRecord.length; i++) add[k++] = newRecord[i];\n            for (uint i = 0; i < enter.length; i++) add[k++] = enter[i];\n            for (uint i = 0; i < history.length; i++) add[k++] = history[i];\n            users[user].record = string(add);\n        }\n    }\n    \n    function grantAccess(address hospital) public {\n        users[msg.sender].isAuthenticated[hospital] = true;\n    }\n    \n    function removeAccess(address hospital) public {\n        users[msg.sender].isAuthenticated[hospital] = false;\n    }\n}",
  "sourcePath": "/home/xungerrrr/Medical-Record-Sharing-Dapp/contracts/MedicalRecord.sol",
  "compiler": {
    "name": "solc",
    "version": "0.5.0+commit.1d4f565a.Emscripten.clang"
  },
  "schemaVersion": "3.0.0",
  "updatedAt": "2018-12-31T16:06:45.192Z",
  "devdoc": {
    "methods": {}
  },
  "userdoc": {
    "methods": {}
  }
}